{
  "contractName": "CGCLoyalty",
  "abi": [
    {
      "inputs": [],
      "payable": false,
      "stateMutability": "nonpayable",
      "type": "constructor"
    },
    {
      "constant": true,
      "inputs": [],
      "name": "owner",
      "outputs": [
        {
          "internalType": "address",
          "name": "",
          "type": "address"
        }
      ],
      "payable": false,
      "stateMutability": "view",
      "type": "function"
    },
    {
      "constant": false,
      "inputs": [
        {
          "internalType": "address",
          "name": "buy1",
          "type": "address"
        },
        {
          "internalType": "uint256",
          "name": "amt",
          "type": "uint256"
        },
        {
          "internalType": "uint256",
          "name": "no",
          "type": "uint256"
        }
      ],
      "name": "buy",
      "outputs": [],
      "payable": false,
      "stateMutability": "nonpayable",
      "type": "function"
    },
    {
      "constant": true,
      "inputs": [
        {
          "internalType": "address",
          "name": "buy1",
          "type": "address"
        }
      ],
      "name": "showLppints",
      "outputs": [
        {
          "internalType": "uint256",
          "name": "",
          "type": "uint256"
        }
      ],
      "payable": false,
      "stateMutability": "view",
      "type": "function"
    },
    {
      "constant": false,
      "inputs": [
        {
          "internalType": "address",
          "name": "buy1",
          "type": "address"
        },
        {
          "internalType": "uint256",
          "name": "amt",
          "type": "uint256"
        }
      ],
      "name": "addBalance",
      "outputs": [],
      "payable": false,
      "stateMutability": "nonpayable",
      "type": "function"
    },
    {
      "constant": false,
      "inputs": [
        {
          "internalType": "address",
          "name": "buy1",
          "type": "address"
        }
      ],
      "name": "lpointstoAmt",
      "outputs": [],
      "payable": false,
      "stateMutability": "nonpayable",
      "type": "function"
    },
    {
      "constant": true,
      "inputs": [
        {
          "internalType": "address",
          "name": "buy1",
          "type": "address"
        }
      ],
      "name": "getBalance",
      "outputs": [
        {
          "internalType": "uint256",
          "name": "",
          "type": "uint256"
        }
      ],
      "payable": false,
      "stateMutability": "view",
      "type": "function"
    }
  ],
  "bytecode": "0x608060405234801561001057600080fd5b50336000806101000a81548173ffffffffffffffffffffffffffffffffffffffff021916908373ffffffffffffffffffffffffffffffffffffffff160217905550610661806100606000396000f3fe608060405234801561001057600080fd5b50600436106100615760003560e01c8062cf111f1461006657806321e5383a146100aa57806354fe898a146100f85780638da5cb5b14610150578063a59ac6dd1461019a578063f8b2cb4f146101f2575b600080fd5b6100a86004803603602081101561007c57600080fd5b81019080803573ffffffffffffffffffffffffffffffffffffffff16906020019092919050505061024a565b005b6100f6600480360360408110156100c057600080fd5b81019080803573ffffffffffffffffffffffffffffffffffffffff16906020019092919080359060200190929190505050610382565b005b61013a6004803603602081101561010e57600080fd5b81019080803573ffffffffffffffffffffffffffffffffffffffff1690602001909291905050506103e9565b6040518082815260200191505060405180910390f35b610158610435565b604051808273ffffffffffffffffffffffffffffffffffffffff1673ffffffffffffffffffffffffffffffffffffffff16815260200191505060405180910390f35b6101f0600480360360608110156101b057600080fd5b81019080803573ffffffffffffffffffffffffffffffffffffffff169060200190929190803590602001909291908035906020019092919050505061045a565b005b6102346004803603602081101561020857600080fd5b81019080803573ffffffffffffffffffffffffffffffffffffffff1690602001909291905050506105e0565b6040518082815260200191505060405180910390f35b60006005600160008473ffffffffffffffffffffffffffffffffffffffff1673ffffffffffffffffffffffffffffffffffffffff168152602001908152602001600020600001548161029857fe5b0690506005600160008473ffffffffffffffffffffffffffffffffffffffff1673ffffffffffffffffffffffffffffffffffffffff16815260200190815260200160002060000154816102e757fe5b04600160008473ffffffffffffffffffffffffffffffffffffffff1673ffffffffffffffffffffffffffffffffffffffff1681526020019081526020016000206002016000828254019250508190555080600160008473ffffffffffffffffffffffffffffffffffffffff1673ffffffffffffffffffffffffffffffffffffffff168152602001908152602001600020600001819055505050565b60008111156103e05780600160008473ffffffffffffffffffffffffffffffffffffffff1673ffffffffffffffffffffffffffffffffffffffff168152602001908152602001600020600201600082825401925050819055506103e5565b600080fd5b5050565b6000600160008373ffffffffffffffffffffffffffffffffffffffff1673ffffffffffffffffffffffffffffffffffffffff168152602001908152602001600020600001549050919050565b6000809054906101000a900473ffffffffffffffffffffffffffffffffffffffff1681565b600160008473ffffffffffffffffffffffffffffffffffffffff1673ffffffffffffffffffffffffffffffffffffffff16815260200190815260200160002060020154821180156104ad57508060020282145b156104b757600080fd5b82600160008573ffffffffffffffffffffffffffffffffffffffff1673ffffffffffffffffffffffffffffffffffffffff16815260200190815260200160002060010160006101000a81548173ffffffffffffffffffffffffffffffffffffffff021916908373ffffffffffffffffffffffffffffffffffffffff16021790555081600160008573ffffffffffffffffffffffffffffffffffffffff1673ffffffffffffffffffffffffffffffffffffffff1681526020019081526020016000206002016000828254039250508190555060028102600160008573ffffffffffffffffffffffffffffffffffffffff1673ffffffffffffffffffffffffffffffffffffffff16815260200190815260200160002060000160008282540192505081905550505050565b6000600160008373ffffffffffffffffffffffffffffffffffffffff1673ffffffffffffffffffffffffffffffffffffffff16815260200190815260200160002060020154905091905056fea265627a7a7231582033b3bf2af1790565da5941a94d6bae0d12975909d226b5436e0f86efcbe981f864736f6c63430005100032",
  "source": "// solium-disable linebreak-style\r\npragma solidity ^0.5.16;\r\ncontract CGCLoyalty { \r\n    address public owner;\r\n    struct buyerspec {\r\n        uint lpoints;\r\n        address buyerAdd;\r\n        uint bal; \r\n    }\r\n    mapping ( address=> buyerspec) points;\r\n    \r\n    function buy(address buy1, uint amt, uint no) public  {\r\n        if (amt > points[buy1].bal && amt == 2 * no) revert();\r\n        points[buy1].buyerAdd = buy1;\r\n        points[buy1].bal -= amt;\r\n        points[buy1].lpoints += no*2;\r\n       \r\n    }\r\n    function showLppints(address buy1) public view  returns (uint) {\r\n        return points[buy1].lpoints;\r\n    }\r\n    function addBalance(address buy1, uint amt) public  {\r\n        if(amt>0){\r\n            points[buy1].bal += amt;\r\n        }\r\n        else{\r\n            revert();\r\n        }\r\n    }\r\n\r\n    function lpointstoAmt(address buy1) public {\r\n        uint rem = (points[buy1].lpoints) % 5;\r\n        points[buy1].bal += (points[buy1].lpoints)/5;\r\n        points[buy1].lpoints = rem;\r\n    }\r\n    constructor () public{\r\n        owner = msg.sender;\r\n        \r\n    }\r\n    function getBalance(address buy1)  public view   returns (uint){\r\n        return (points[buy1].bal);\r\n    }\r\n}",
  "sourcePath": "D:\\Block-Course\\CGC-Landran\\EthDApp\\LoyaltyDApp\\contracts\\CGCLoyalty.sol",
  "compiler": {
    "name": "solc",
    "version": "0.5.16+commit.9c3226ce.Emscripten.clang"
  },
  "schemaVersion": "3.4.3",
  "updatedAt": "2022-03-16T05:22:11.970Z",
  "networkType": "ethereum",
  "devdoc": {
    "methods": {}
  },
  "userdoc": {
    "methods": {}
  }
}